:0300000002015E9C
:10015E0078FFE4F6D8FD9000007F007E01E4F0A366
:0A016E00DFFCDEFA75810E0201A22B
:1001A20012017812018DE50870FC7508011201B484
:0201B20080F4D7
:03004300020100B7
:10010000C0E0C0D075D000C006C00753D2BFB2A1B6
:10011000050CE50CAE0B7002050B14D3950EEE9595
:100120000D4032750B00750C00AFD7EF64FE700AFE
:10013000750901F50AF50D750E28AFD7EF700AF5B0
:1001400009750A01F50D750E14E509600215D7E56C
:0E0150000A600205D7D007D006D0D0D0E0322A
:10017800E4F59A759BFFF591F59275A1FFF5A275C7
:05018800D9FFF5DA22A9
:10018D0075D23A75D3FF75D10775D7FEE4F5D44313
:05019D00A902D2AF220F
:0701B40012018D43D28022ED
:00000001FF
